{
  "_format": "hh-sol-artifact-1",
  "contractName": "OneBeat",
  "sourceName": "contracts/OneBeat.sol",
  "abi": [
    {
      "inputs": [
        {
          "internalType": "uint256",
          "name": "",
          "type": "uint256"
        },
        {
          "internalType": "uint256",
          "name": "",
          "type": "uint256"
        }
      ],
      "name": "allowedWatchers",
      "outputs": [
        {
          "internalType": "address",
          "name": "",
          "type": "address"
        }
      ],
      "stateMutability": "view",
      "type": "function"
    },
    {
      "inputs": [
        {
          "internalType": "uint256",
          "name": "id",
          "type": "uint256"
        },
        {
          "internalType": "address",
          "name": "watcher",
          "type": "address"
        }
      ],
      "name": "bookSchdeuledStream",
      "outputs": [],
      "stateMutability": "payable",
      "type": "function"
    },
    {
      "inputs": [
        {
          "internalType": "address",
          "name": "user",
          "type": "address"
        },
        {
          "internalType": "uint256",
          "name": "tid",
          "type": "uint256"
        }
      ],
      "name": "buyNFT",
      "outputs": [],
      "stateMutability": "nonpayable",
      "type": "function"
    },
    {
      "inputs": [
        {
          "internalType": "address",
          "name": "user",
          "type": "address"
        },
        {
          "internalType": "uint256",
          "name": "tid",
          "type": "uint256"
        }
      ],
      "name": "createNFT",
      "outputs": [],
      "stateMutability": "nonpayable",
      "type": "function"
    },
    {
      "inputs": [
        {
          "internalType": "address",
          "name": "user",
          "type": "address"
        },
        {
          "internalType": "string",
          "name": "name",
          "type": "string"
        },
        {
          "internalType": "string",
          "name": "photo",
          "type": "string"
        }
      ],
      "name": "createProfile",
      "outputs": [],
      "stateMutability": "nonpayable",
      "type": "function"
    },
    {
      "inputs": [
        {
          "internalType": "address",
          "name": "creator",
          "type": "address"
        },
        {
          "internalType": "string",
          "name": "t",
          "type": "string"
        },
        {
          "internalType": "string",
          "name": "d",
          "type": "string"
        },
        {
          "internalType": "string",
          "name": "rights",
          "type": "string"
        },
        {
          "internalType": "string",
          "name": "cid",
          "type": "string"
        },
        {
          "internalType": "string",
          "name": "v_cid",
          "type": "string"
        },
        {
          "internalType": "bool",
          "name": "isRecord",
          "type": "bool"
        }
      ],
      "name": "createStream",
      "outputs": [],
      "stateMutability": "nonpayable",
      "type": "function"
    },
    {
      "inputs": [
        {
          "internalType": "address",
          "name": "",
          "type": "address"
        }
      ],
      "name": "creatorInfo",
      "outputs": [
        {
          "internalType": "address",
          "name": "creator",
          "type": "address"
        },
        {
          "internalType": "string",
          "name": "creatorName",
          "type": "string"
        },
        {
          "internalType": "string",
          "name": "photo_cid",
          "type": "string"
        }
      ],
      "stateMutability": "view",
      "type": "function"
    },
    {
      "inputs": [
        {
          "internalType": "uint256",
          "name": "id",
          "type": "uint256"
        }
      ],
      "name": "getAllScheduledStreams",
      "outputs": [
        {
          "components": [
            {
              "internalType": "uint256",
              "name": "schedule_id",
              "type": "uint256"
            },
            {
              "internalType": "address",
              "name": "schedule_creator",
              "type": "address"
            },
            {
              "internalType": "string",
              "name": "cover_cid",
              "type": "string"
            },
            {
              "internalType": "string",
              "name": "s_title",
              "type": "string"
            },
            {
              "internalType": "string",
              "name": "s_description",
              "type": "string"
            },
            {
              "internalType": "string",
              "name": "time",
              "type": "string"
            },
            {
              "internalType": "string",
              "name": "rights",
              "type": "string"
            },
            {
              "internalType": "uint256",
              "name": "price",
              "type": "uint256"
            },
            {
              "internalType": "string",
              "name": "s_video_id",
              "type": "string"
            },
            {
              "internalType": "bool",
              "name": "isOver",
              "type": "bool"
            }
          ],
          "internalType": "struct OneBeat.StreamScheduled",
          "name": "",
          "type": "tuple"
        }
      ],
      "stateMutability": "view",
      "type": "function"
    },
    {
      "inputs": [
        {
          "internalType": "uint256",
          "name": "id",
          "type": "uint256"
        }
      ],
      "name": "getAllStream",
      "outputs": [
        {
          "components": [
            {
              "internalType": "uint256",
              "name": "stream_id",
              "type": "uint256"
            },
            {
              "internalType": "address",
              "name": "stream_creator",
              "type": "address"
            },
            {
              "internalType": "string",
              "name": "title",
              "type": "string"
            },
            {
              "internalType": "string",
              "name": "description",
              "type": "string"
            },
            {
              "internalType": "string",
              "name": "stream_rights",
              "type": "string"
            },
            {
              "internalType": "string",
              "name": "img_cid",
              "type": "string"
            },
            {
              "internalType": "string",
              "name": "video_id",
              "type": "string"
            },
            {
              "internalType": "bool",
              "name": "wantToRecord",
              "type": "bool"
            }
          ],
          "internalType": "struct OneBeat.Stream",
          "name": "",
          "type": "tuple"
        }
      ],
      "stateMutability": "view",
      "type": "function"
    },
    {
      "inputs": [],
      "name": "getAllUsers",
      "outputs": [
        {
          "internalType": "address[]",
          "name": "",
          "type": "address[]"
        }
      ],
      "stateMutability": "view",
      "type": "function"
    },
    {
      "inputs": [
        {
          "internalType": "uint256",
          "name": "id",
          "type": "uint256"
        }
      ],
      "name": "getAllowedWatcher",
      "outputs": [
        {
          "internalType": "address[]",
          "name": "",
          "type": "address[]"
        }
      ],
      "stateMutability": "view",
      "type": "function"
    },
    {
      "inputs": [
        {
          "internalType": "address",
          "name": "user",
          "type": "address"
        }
      ],
      "name": "getCreator",
      "outputs": [
        {
          "components": [
            {
              "internalType": "address",
              "name": "creator",
              "type": "address"
            },
            {
              "internalType": "string",
              "name": "creatorName",
              "type": "string"
            },
            {
              "internalType": "string",
              "name": "photo_cid",
              "type": "string"
            },
            {
              "internalType": "uint256[]",
              "name": "tokens",
              "type": "uint256[]"
            }
          ],
          "internalType": "struct OneBeat.Creator",
          "name": "",
          "type": "tuple"
        }
      ],
      "stateMutability": "view",
      "type": "function"
    },
    {
      "inputs": [
        {
          "internalType": "address",
          "name": "user",
          "type": "address"
        }
      ],
      "name": "getStreamId",
      "outputs": [
        {
          "internalType": "uint256[]",
          "name": "",
          "type": "uint256[]"
        }
      ],
      "stateMutability": "view",
      "type": "function"
    },
    {
      "inputs": [
        {
          "internalType": "address",
          "name": "user",
          "type": "address"
        }
      ],
      "name": "getTotal",
      "outputs": [
        {
          "internalType": "uint256",
          "name": "",
          "type": "uint256"
        }
      ],
      "stateMutability": "view",
      "type": "function"
    },
    {
      "inputs": [],
      "name": "getTotalScheduledNumber",
      "outputs": [
        {
          "internalType": "uint256",
          "name": "",
          "type": "uint256"
        }
      ],
      "stateMutability": "view",
      "type": "function"
    },
    {
      "inputs": [
        {
          "internalType": "address",
          "name": "user",
          "type": "address"
        }
      ],
      "name": "getTotalScheduledStreams",
      "outputs": [
        {
          "internalType": "uint256",
          "name": "",
          "type": "uint256"
        }
      ],
      "stateMutability": "view",
      "type": "function"
    },
    {
      "inputs": [
        {
          "internalType": "address",
          "name": "user",
          "type": "address"
        }
      ],
      "name": "getTotalStream",
      "outputs": [
        {
          "internalType": "uint256",
          "name": "",
          "type": "uint256"
        }
      ],
      "stateMutability": "view",
      "type": "function"
    },
    {
      "inputs": [],
      "name": "getTotalStreamNumber",
      "outputs": [
        {
          "internalType": "uint256",
          "name": "",
          "type": "uint256"
        }
      ],
      "stateMutability": "view",
      "type": "function"
    },
    {
      "inputs": [
        {
          "internalType": "uint256",
          "name": "",
          "type": "uint256"
        }
      ],
      "name": "idToScheduledStream",
      "outputs": [
        {
          "internalType": "uint256",
          "name": "schedule_id",
          "type": "uint256"
        },
        {
          "internalType": "address",
          "name": "schedule_creator",
          "type": "address"
        },
        {
          "internalType": "string",
          "name": "cover_cid",
          "type": "string"
        },
        {
          "internalType": "string",
          "name": "s_title",
          "type": "string"
        },
        {
          "internalType": "string",
          "name": "s_description",
          "type": "string"
        },
        {
          "internalType": "string",
          "name": "time",
          "type": "string"
        },
        {
          "internalType": "string",
          "name": "rights",
          "type": "string"
        },
        {
          "internalType": "uint256",
          "name": "price",
          "type": "uint256"
        },
        {
          "internalType": "string",
          "name": "s_video_id",
          "type": "string"
        },
        {
          "internalType": "bool",
          "name": "isOver",
          "type": "bool"
        }
      ],
      "stateMutability": "view",
      "type": "function"
    },
    {
      "inputs": [
        {
          "internalType": "uint256",
          "name": "",
          "type": "uint256"
        }
      ],
      "name": "idToStream",
      "outputs": [
        {
          "internalType": "uint256",
          "name": "stream_id",
          "type": "uint256"
        },
        {
          "internalType": "address",
          "name": "stream_creator",
          "type": "address"
        },
        {
          "internalType": "string",
          "name": "title",
          "type": "string"
        },
        {
          "internalType": "string",
          "name": "description",
          "type": "string"
        },
        {
          "internalType": "string",
          "name": "stream_rights",
          "type": "string"
        },
        {
          "internalType": "string",
          "name": "img_cid",
          "type": "string"
        },
        {
          "internalType": "string",
          "name": "video_id",
          "type": "string"
        },
        {
          "internalType": "bool",
          "name": "wantToRecord",
          "type": "bool"
        }
      ],
      "stateMutability": "view",
      "type": "function"
    },
    {
      "inputs": [
        {
          "internalType": "address",
          "name": "creator",
          "type": "address"
        },
        {
          "internalType": "string",
          "name": "cid",
          "type": "string"
        },
        {
          "internalType": "string",
          "name": "title",
          "type": "string"
        },
        {
          "internalType": "string",
          "name": "des",
          "type": "string"
        },
        {
          "internalType": "string",
          "name": "time",
          "type": "string"
        },
        {
          "internalType": "string",
          "name": "rights",
          "type": "string"
        },
        {
          "internalType": "uint256",
          "name": "price",
          "type": "uint256"
        }
      ],
      "name": "scheduleStream",
      "outputs": [],
      "stateMutability": "nonpayable",
      "type": "function"
    },
    {
      "inputs": [
        {
          "internalType": "uint256",
          "name": "id",
          "type": "uint256"
        },
        {
          "internalType": "string",
          "name": "v_id",
          "type": "string"
        }
      ],
      "name": "startStream",
      "outputs": [],
      "stateMutability": "nonpayable",
      "type": "function"
    },
    {
      "inputs": [
        {
          "internalType": "address",
          "name": "",
          "type": "address"
        },
        {
          "internalType": "uint256",
          "name": "",
          "type": "uint256"
        }
      ],
      "name": "userToScheduledStream",
      "outputs": [
        {
          "internalType": "uint256",
          "name": "",
          "type": "uint256"
        }
      ],
      "stateMutability": "view",
      "type": "function"
    },
    {
      "inputs": [
        {
          "internalType": "address",
          "name": "",
          "type": "address"
        },
        {
          "internalType": "uint256",
          "name": "",
          "type": "uint256"
        }
      ],
      "name": "userToStream",
      "outputs": [
        {
          "internalType": "uint256",
          "name": "",
          "type": "uint256"
        }
      ],
      "stateMutability": "view",
      "type": "function"
    },
    {
      "inputs": [
        {
          "internalType": "uint256",
          "name": "",
          "type": "uint256"
        }
      ],
      "name": "users",
      "outputs": [
        {
          "internalType": "address",
          "name": "",
          "type": "address"
        }
      ],
      "stateMutability": "view",
      "type": "function"
    }
  ],
  "bytecode": "0x608060405234801561001057600080fd5b50613616806100206000396000f3fe6080604052600436106101665760003560e01c80638d262dfa116100d1578063c518761e1161008a578063d5721a3511610064578063d5721a35146105ce578063dd1c9a1e14610612578063e2842d791461063b578063ebb6dad81461066657610166565b8063c518761e1461054a578063c5d8e28314610566578063d48286a51461059157610166565b80638d262dfa146104165780639aee1b9314610453578063a021030914610492578063a82ba76f146104cf578063bdd95633146104f8578063c11c956c1461052157610166565b806355f6333b1161012357806355f6333b146102d95780635c42d5041461031f57806360dd68121461034857806361dbee6f146103715780637b2f085c1461039c5780637ff195f5146103d957610166565b8063142fc78e1461016b57806316a76c04146101a85780632aff7c33146101e5578063350f81b814610222578063365b98b21461025f5780634891a2e51461029c575b600080fd5b34801561017757600080fd5b50610192600480360381019061018d9190612a3b565b6106a3565b60405161019f9190613109565b60405180910390f35b3480156101b457600080fd5b506101cf60048036038101906101ca9190612767565b6106d4565b6040516101dc9190613109565b60405180910390f35b3480156101f157600080fd5b5061020c60048036038101906102079190612a77565b610720565b604051610219919061303f565b60405180910390f35b34801561022e57600080fd5b5061024960048036038101906102449190612a77565b6107c1565b60405161025691906130c5565b60405180910390f35b34801561026b57600080fd5b5061028660048036038101906102819190612a77565b610be0565b6040516102939190612fdf565b60405180910390f35b3480156102a857600080fd5b506102c360048036038101906102be9190612767565b610c1f565b6040516102d09190613061565b60405180910390f35b3480156102e557600080fd5b5061030060048036038101906102fb9190612a77565b610cb6565b6040516103169a999897969594939291906131c5565b60405180910390f35b34801561032b57600080fd5b5061034660048036038101906103419190612adc565b611067565b005b34801561035457600080fd5b5061036f600480360381019061036a9190612790565b6110c5565b005b34801561037d57600080fd5b50610386611305565b6040516103939190613109565b60405180910390f35b3480156103a857600080fd5b506103c360048036038101906103be9190612767565b61130f565b6040516103d09190613109565b60405180910390f35b3480156103e557600080fd5b5061040060048036038101906103fb9190612b30565b61135b565b60405161040d9190612fdf565b60405180910390f35b34801561042257600080fd5b5061043d60048036038101906104389190612a3b565b6113a9565b60405161044a9190613109565b60405180910390f35b34801561045f57600080fd5b5061047a60048036038101906104759190612767565b6113da565b60405161048993929190612ffa565b60405180910390f35b34801561049e57600080fd5b506104b960048036038101906104b49190612767565b611534565b6040516104c691906130a3565b60405180910390f35b3480156104db57600080fd5b506104f660048036038101906104f19190612a3b565b61175f565b005b34801561050457600080fd5b5061051f600480360381019061051a9190612925565b6117cc565b005b34801561052d57600080fd5b5061054860048036038101906105439190612a3b565b611a0a565b005b610564600480360381019061055f9190612aa0565b611a77565b005b34801561057257600080fd5b5061057b611b4d565b6040516105889190613109565b60405180910390f35b34801561059d57600080fd5b506105b860048036038101906105b39190612a77565b611b57565b6040516105c591906130e7565b60405180910390f35b3480156105da57600080fd5b506105f560048036038101906105f09190612a77565b611eda565b604051610609989796959493929190613124565b60405180910390f35b34801561061e57600080fd5b506106396004803603810190610634919061280f565b6121f7565b005b34801561064757600080fd5b506106506123f0565b60405161065d919061303f565b60405180910390f35b34801561067257600080fd5b5061068d60048036038101906106889190612767565b61247e565b60405161069a9190613109565b60405180910390f35b600560205281600052604060002081815481106106bf57600080fd5b90600052602060002001600091509150505481565b6000600560008373ffffffffffffffffffffffffffffffffffffffff1673ffffffffffffffffffffffffffffffffffffffff168152602001908152602001600020805490509050919050565b6060600760008381526020019081526020016000208054806020026020016040519081016040528092919081815260200182805480156107b557602002820191906000526020600020905b8160009054906101000a900473ffffffffffffffffffffffffffffffffffffffff1673ffffffffffffffffffffffffffffffffffffffff168152602001906001019080831161076b575b50505050509050919050565b6107c9612517565b6004600083815260200190815260200160002060405180610140016040529081600082015481526020016001820160009054906101000a900473ffffffffffffffffffffffffffffffffffffffff1673ffffffffffffffffffffffffffffffffffffffff1673ffffffffffffffffffffffffffffffffffffffff16815260200160028201805461085890613471565b80601f016020809104026020016040519081016040528092919081815260200182805461088490613471565b80156108d15780601f106108a6576101008083540402835291602001916108d1565b820191906000526020600020905b8154815290600101906020018083116108b457829003601f168201915b505050505081526020016003820180546108ea90613471565b80601f016020809104026020016040519081016040528092919081815260200182805461091690613471565b80156109635780601f1061093857610100808354040283529160200191610963565b820191906000526020600020905b81548152906001019060200180831161094657829003601f168201915b5050505050815260200160048201805461097c90613471565b80601f01602080910402602001604051908101604052809291908181526020018280546109a890613471565b80156109f55780601f106109ca576101008083540402835291602001916109f5565b820191906000526020600020905b8154815290600101906020018083116109d857829003601f168201915b50505050508152602001600582018054610a0e90613471565b80601f0160208091040260200160405190810160405280929190818152602001828054610a3a90613471565b8015610a875780601f10610a5c57610100808354040283529160200191610a87565b820191906000526020600020905b815481529060010190602001808311610a6a57829003601f168201915b50505050508152602001600682018054610aa090613471565b80601f0160208091040260200160405190810160405280929190818152602001828054610acc90613471565b8015610b195780601f10610aee57610100808354040283529160200191610b19565b820191906000526020600020905b815481529060010190602001808311610afc57829003601f168201915b5050505050815260200160078201548152602001600882018054610b3c90613471565b80601f0160208091040260200160405190810160405280929190818152602001828054610b6890613471565b8015610bb55780601f10610b8a57610100808354040283529160200191610bb5565b820191906000526020600020905b815481529060010190602001808311610b9857829003601f168201915b505050505081526020016009820160009054906101000a900460ff1615151515815250509050919050565b60008181548110610bf057600080fd5b906000526020600020016000915054906101000a900473ffffffffffffffffffffffffffffffffffffffff1681565b6060600360008373ffffffffffffffffffffffffffffffffffffffff1673ffffffffffffffffffffffffffffffffffffffff168152602001908152602001600020805480602002602001604051908101604052809291908181526020018280548015610caa57602002820191906000526020600020905b815481526020019060010190808311610c96575b50505050509050919050565b60046020528060005260406000206000915090508060000154908060010160009054906101000a900473ffffffffffffffffffffffffffffffffffffffff1690806002018054610d0590613471565b80601f0160208091040260200160405190810160405280929190818152602001828054610d3190613471565b8015610d7e5780601f10610d5357610100808354040283529160200191610d7e565b820191906000526020600020905b815481529060010190602001808311610d6157829003601f168201915b505050505090806003018054610d9390613471565b80601f0160208091040260200160405190810160405280929190818152602001828054610dbf90613471565b8015610e0c5780601f10610de157610100808354040283529160200191610e0c565b820191906000526020600020905b815481529060010190602001808311610def57829003601f168201915b505050505090806004018054610e2190613471565b80601f0160208091040260200160405190810160405280929190818152602001828054610e4d90613471565b8015610e9a5780601f10610e6f57610100808354040283529160200191610e9a565b820191906000526020600020905b815481529060010190602001808311610e7d57829003601f168201915b505050505090806005018054610eaf90613471565b80601f0160208091040260200160405190810160405280929190818152602001828054610edb90613471565b8015610f285780601f10610efd57610100808354040283529160200191610f28565b820191906000526020600020905b815481529060010190602001808311610f0b57829003601f168201915b505050505090806006018054610f3d90613471565b80601f0160208091040260200160405190810160405280929190818152602001828054610f6990613471565b8015610fb65780601f10610f8b57610100808354040283529160200191610fb6565b820191906000526020600020905b815481529060010190602001808311610f9957829003601f168201915b505050505090806007015490806008018054610fd190613471565b80601f0160208091040260200160405190810160405280929190818152602001828054610ffd90613471565b801561104a5780601f1061101f5761010080835404028352916020019161104a565b820191906000526020600020905b81548152906001019060200180831161102d57829003601f168201915b5050505050908060090160009054906101000a900460ff1690508a565b80600460008481526020019081526020016000206008019080519060200190611091929190612582565b5060016004600084815260200190815260200160002060090160006101000a81548160ff0219169083151502179055505050565b600160008473ffffffffffffffffffffffffffffffffffffffff1673ffffffffffffffffffffffffffffffffffffffff16815260200190815260200160002060009054906101000a900460ff166111d1576000839080600181540180825580915050600190039060005260206000200160009091909190916101000a81548173ffffffffffffffffffffffffffffffffffffffff021916908373ffffffffffffffffffffffffffffffffffffffff16021790555060018060008573ffffffffffffffffffffffffffffffffffffffff1673ffffffffffffffffffffffffffffffffffffffff16815260200190815260200160002060006101000a81548160ff0219169083151502179055505b82600660008573ffffffffffffffffffffffffffffffffffffffff1673ffffffffffffffffffffffffffffffffffffffff16815260200190815260200160002060000160006101000a81548173ffffffffffffffffffffffffffffffffffffffff021916908373ffffffffffffffffffffffffffffffffffffffff16021790555081600660008573ffffffffffffffffffffffffffffffffffffffff1673ffffffffffffffffffffffffffffffffffffffff16815260200190815260200160002060010190805190602001906112a8929190612582565b5080600660008573ffffffffffffffffffffffffffffffffffffffff1673ffffffffffffffffffffffffffffffffffffffff16815260200190815260200160002060020190805190602001906112ff929190612582565b50505050565b6000600954905090565b6000600360008373ffffffffffffffffffffffffffffffffffffffff1673ffffffffffffffffffffffffffffffffffffffff168152602001908152602001600020805490509050919050565b6007602052816000526040600020818154811061137757600080fd5b906000526020600020016000915091509054906101000a900473ffffffffffffffffffffffffffffffffffffffff1681565b600360205281600052604060002081815481106113c557600080fd5b90600052602060002001600091509150505481565b60066020528060005260406000206000915090508060000160009054906101000a900473ffffffffffffffffffffffffffffffffffffffff169080600101805461142390613471565b80601f016020809104026020016040519081016040528092919081815260200182805461144f90613471565b801561149c5780601f106114715761010080835404028352916020019161149c565b820191906000526020600020905b81548152906001019060200180831161147f57829003601f168201915b5050505050908060020180546114b190613471565b80601f01602080910402602001604051908101604052809291908181526020018280546114dd90613471565b801561152a5780601f106114ff5761010080835404028352916020019161152a565b820191906000526020600020905b81548152906001019060200180831161150d57829003601f168201915b5050505050905083565b61153c612608565b600660008373ffffffffffffffffffffffffffffffffffffffff1673ffffffffffffffffffffffffffffffffffffffff1681526020019081526020016000206040518060800160405290816000820160009054906101000a900473ffffffffffffffffffffffffffffffffffffffff1673ffffffffffffffffffffffffffffffffffffffff1673ffffffffffffffffffffffffffffffffffffffff1681526020016001820180546115ec90613471565b80601f016020809104026020016040519081016040528092919081815260200182805461161890613471565b80156116655780601f1061163a57610100808354040283529160200191611665565b820191906000526020600020905b81548152906001019060200180831161164857829003601f168201915b5050505050815260200160028201805461167e90613471565b80601f01602080910402602001604051908101604052809291908181526020018280546116aa90613471565b80156116f75780601f106116cc576101008083540402835291602001916116f7565b820191906000526020600020905b8154815290600101906020018083116116da57829003601f168201915b505050505081526020016003820180548060200260200160405190810160405280929190818152602001828054801561174f57602002820191906000526020600020905b81548152602001906001019080831161173b575b5050505050815250509050919050565b600660008373ffffffffffffffffffffffffffffffffffffffff1673ffffffffffffffffffffffffffffffffffffffff1681526020019081526020016000206003018190806001815401808255809150506001900390600052602060002001600090919091909150555050565b6001600860008282546117df9190613391565b9250508190555060405180610140016040528060085481526020018873ffffffffffffffffffffffffffffffffffffffff168152602001878152602001868152602001858152602001848152602001838152602001828152602001604051806020016040528060008152508152602001600015158152506004600060085481526020019081526020016000206000820151816000015560208201518160010160006101000a81548173ffffffffffffffffffffffffffffffffffffffff021916908373ffffffffffffffffffffffffffffffffffffffff16021790555060408201518160020190805190602001906118d8929190612582565b5060608201518160030190805190602001906118f5929190612582565b506080820151816004019080519060200190611912929190612582565b5060a082015181600501908051906020019061192f929190612582565b5060c082015181600601908051906020019061194c929190612582565b5060e08201518160070155610100820151816008019080519060200190611974929190612582565b506101208201518160090160006101000a81548160ff021916908315150217905550905050600560008873ffffffffffffffffffffffffffffffffffffffff1673ffffffffffffffffffffffffffffffffffffffff168152602001908152602001600020600854908060018154018082558091505060019003906000526020600020016000909190919091505550505050505050565b600660008373ffffffffffffffffffffffffffffffffffffffff1673ffffffffffffffffffffffffffffffffffffffff1681526020019081526020016000206003018190806001815401808255809150506001900390600052602060002001600090919091909150555050565b600060046000848152602001908152602001600020600701549050803414611ad4576040517f08c379a0000000000000000000000000000000000000000000000000000000008152600401611acb90613083565b60405180910390fd5b60076000848152602001908152602001600020829080600181540180825580915050600190039060005260206000200160009091909190916101000a81548173ffffffffffffffffffffffffffffffffffffffff021916908373ffffffffffffffffffffffffffffffffffffffff160217905550505050565b6000600854905090565b611b5f612646565b6002600083815260200190815260200160002060405180610100016040529081600082015481526020016001820160009054906101000a900473ffffffffffffffffffffffffffffffffffffffff1673ffffffffffffffffffffffffffffffffffffffff1673ffffffffffffffffffffffffffffffffffffffff168152602001600282018054611bee90613471565b80601f0160208091040260200160405190810160405280929190818152602001828054611c1a90613471565b8015611c675780601f10611c3c57610100808354040283529160200191611c67565b820191906000526020600020905b815481529060010190602001808311611c4a57829003601f168201915b50505050508152602001600382018054611c8090613471565b80601f0160208091040260200160405190810160405280929190818152602001828054611cac90613471565b8015611cf95780601f10611cce57610100808354040283529160200191611cf9565b820191906000526020600020905b815481529060010190602001808311611cdc57829003601f168201915b50505050508152602001600482018054611d1290613471565b80601f0160208091040260200160405190810160405280929190818152602001828054611d3e90613471565b8015611d8b5780601f10611d6057610100808354040283529160200191611d8b565b820191906000526020600020905b815481529060010190602001808311611d6e57829003601f168201915b50505050508152602001600582018054611da490613471565b80601f0160208091040260200160405190810160405280929190818152602001828054611dd090613471565b8015611e1d5780601f10611df257610100808354040283529160200191611e1d565b820191906000526020600020905b815481529060010190602001808311611e0057829003601f168201915b50505050508152602001600682018054611e3690613471565b80601f0160208091040260200160405190810160405280929190818152602001828054611e6290613471565b8015611eaf5780601f10611e8457610100808354040283529160200191611eaf565b820191906000526020600020905b815481529060010190602001808311611e9257829003601f168201915b505050505081526020016007820160009054906101000a900460ff1615151515815250509050919050565b60026020528060005260406000206000915090508060000154908060010160009054906101000a900473ffffffffffffffffffffffffffffffffffffffff1690806002018054611f2990613471565b80601f0160208091040260200160405190810160405280929190818152602001828054611f5590613471565b8015611fa25780601f10611f7757610100808354040283529160200191611fa2565b820191906000526020600020905b815481529060010190602001808311611f8557829003601f168201915b505050505090806003018054611fb790613471565b80601f0160208091040260200160405190810160405280929190818152602001828054611fe390613471565b80156120305780601f1061200557610100808354040283529160200191612030565b820191906000526020600020905b81548152906001019060200180831161201357829003601f168201915b50505050509080600401805461204590613471565b80601f016020809104026020016040519081016040528092919081815260200182805461207190613471565b80156120be5780601f10612093576101008083540402835291602001916120be565b820191906000526020600020905b8154815290600101906020018083116120a157829003601f168201915b5050505050908060050180546120d390613471565b80601f01602080910402602001604051908101604052809291908181526020018280546120ff90613471565b801561214c5780601f106121215761010080835404028352916020019161214c565b820191906000526020600020905b81548152906001019060200180831161212f57829003601f168201915b50505050509080600601805461216190613471565b80601f016020809104026020016040519081016040528092919081815260200182805461218d90613471565b80156121da5780601f106121af576101008083540402835291602001916121da565b820191906000526020600020905b8154815290600101906020018083116121bd57829003601f168201915b5050505050908060070160009054906101000a900460ff16905088565b60016009600082825461220a9190613391565b9250508190555060405180610100016040528060095481526020018873ffffffffffffffffffffffffffffffffffffffff1681526020018781526020018681526020018581526020018481526020018381526020018215158152506002600060095481526020019081526020016000206000820151816000015560208201518160010160006101000a81548173ffffffffffffffffffffffffffffffffffffffff021916908373ffffffffffffffffffffffffffffffffffffffff16021790555060408201518160020190805190602001906122e7929190612582565b506060820151816003019080519060200190612304929190612582565b506080820151816004019080519060200190612321929190612582565b5060a082015181600501908051906020019061233e929190612582565b5060c082015181600601908051906020019061235b929190612582565b5060e08201518160070160006101000a81548160ff021916908315150217905550905050600360008873ffffffffffffffffffffffffffffffffffffffff1673ffffffffffffffffffffffffffffffffffffffff168152602001908152602001600020600954908060018154018082558091505060019003906000526020600020016000909190919091505550505050505050565b6060600080548060200260200160405190810160405280929190818152602001828054801561247457602002820191906000526020600020905b8160009054906101000a900473ffffffffffffffffffffffffffffffffffffffff1673ffffffffffffffffffffffffffffffffffffffff168152602001906001019080831161242a575b5050505050905090565b6000600560008373ffffffffffffffffffffffffffffffffffffffff1673ffffffffffffffffffffffffffffffffffffffff16815260200190815260200160002080549050600360008473ffffffffffffffffffffffffffffffffffffffff1673ffffffffffffffffffffffffffffffffffffffff168152602001908152602001600020805490506125109190613391565b9050919050565b60405180610140016040528060008152602001600073ffffffffffffffffffffffffffffffffffffffff168152602001606081526020016060815260200160608152602001606081526020016060815260200160008152602001606081526020016000151581525090565b82805461258e90613471565b90600052602060002090601f0160209004810192826125b057600085556125f7565b82601f106125c957805160ff19168380011785556125f7565b828001600101855582156125f7579182015b828111156125f65782518255916020019190600101906125db565b5b50905061260491906126a3565b5090565b6040518060800160405280600073ffffffffffffffffffffffffffffffffffffffff1681526020016060815260200160608152602001606081525090565b60405180610100016040528060008152602001600073ffffffffffffffffffffffffffffffffffffffff16815260200160608152602001606081526020016060815260200160608152602001606081526020016000151581525090565b5b808211156126bc5760008160009055506001016126a4565b5090565b60006126d36126ce846132b0565b61328b565b9050828152602081018484840111156126eb57600080fd5b6126f684828561342f565b509392505050565b60008135905061270d8161359b565b92915050565b600081359050612722816135b2565b92915050565b600082601f83011261273957600080fd5b81356127498482602086016126c0565b91505092915050565b600081359050612761816135c9565b92915050565b60006020828403121561277957600080fd5b6000612787848285016126fe565b91505092915050565b6000806000606084860312156127a557600080fd5b60006127b3868287016126fe565b935050602084013567ffffffffffffffff8111156127d057600080fd5b6127dc86828701612728565b925050604084013567ffffffffffffffff8111156127f957600080fd5b61280586828701612728565b9150509250925092565b600080600080600080600060e0888a03121561282a57600080fd5b60006128388a828b016126fe565b975050602088013567ffffffffffffffff81111561285557600080fd5b6128618a828b01612728565b965050604088013567ffffffffffffffff81111561287e57600080fd5b61288a8a828b01612728565b955050606088013567ffffffffffffffff8111156128a757600080fd5b6128b38a828b01612728565b945050608088013567ffffffffffffffff8111156128d057600080fd5b6128dc8a828b01612728565b93505060a088013567ffffffffffffffff8111156128f957600080fd5b6129058a828b01612728565b92505060c06129168a828b01612713565b91505092959891949750929550565b600080600080600080600060e0888a03121561294057600080fd5b600061294e8a828b016126fe565b975050602088013567ffffffffffffffff81111561296b57600080fd5b6129778a828b01612728565b965050604088013567ffffffffffffffff81111561299457600080fd5b6129a08a828b01612728565b955050606088013567ffffffffffffffff8111156129bd57600080fd5b6129c98a828b01612728565b945050608088013567ffffffffffffffff8111156129e657600080fd5b6129f28a828b01612728565b93505060a088013567ffffffffffffffff811115612a0f57600080fd5b612a1b8a828b01612728565b92505060c0612a2c8a828b01612752565b91505092959891949750929550565b60008060408385031215612a4e57600080fd5b6000612a5c858286016126fe565b9250506020612a6d85828601612752565b9150509250929050565b600060208284031215612a8957600080fd5b6000612a9784828501612752565b91505092915050565b60008060408385031215612ab357600080fd5b6000612ac185828601612752565b9250506020612ad2858286016126fe565b9150509250929050565b60008060408385031215612aef57600080fd5b6000612afd85828601612752565b925050602083013567ffffffffffffffff811115612b1a57600080fd5b612b2685828601612728565b9150509250929050565b60008060408385031215612b4357600080fd5b6000612b5185828601612752565b9250506020612b6285828601612752565b9150509250929050565b6000612b788383612b9c565b60208301905092915050565b6000612b908383612fc1565b60208301905092915050565b612ba5816133e7565b82525050565b612bb4816133e7565b82525050565b6000612bc582613301565b612bcf818561333c565b9350612bda836132e1565b8060005b83811015612c0b578151612bf28882612b6c565b9750612bfd83613322565b925050600181019050612bde565b5085935050505092915050565b6000612c238261330c565b612c2d818561334d565b9350612c38836132f1565b8060005b83811015612c69578151612c508882612b84565b9750612c5b8361332f565b925050600181019050612c3c565b5085935050505092915050565b6000612c818261330c565b612c8b818561335e565b9350612c96836132f1565b8060005b83811015612cc7578151612cae8882612b84565b9750612cb98361332f565b925050600181019050612c9a565b5085935050505092915050565b612cdd816133f9565b82525050565b612cec816133f9565b82525050565b6000612cfd82613317565b612d07818561336f565b9350612d1781856020860161343e565b612d2081613561565b840191505092915050565b6000612d3682613317565b612d408185613380565b9350612d5081856020860161343e565b612d5981613561565b840191505092915050565b6000612d71601083613380565b9150612d7c82613572565b602082019050919050565b6000608083016000830151612d9f6000860182612b9c565b5060208301518482036020860152612db78282612cf2565b91505060408301518482036040860152612dd18282612cf2565b91505060608301518482036060860152612deb8282612c18565b9150508091505092915050565b600061014083016000830151612e116000860182612fc1565b506020830151612e246020860182612b9c565b5060408301518482036040860152612e3c8282612cf2565b91505060608301518482036060860152612e568282612cf2565b91505060808301518482036080860152612e708282612cf2565b91505060a083015184820360a0860152612e8a8282612cf2565b91505060c083015184820360c0860152612ea48282612cf2565b91505060e0830151612eb960e0860182612fc1565b50610100830151848203610100860152612ed38282612cf2565b915050610120830151612eea610120860182612cd4565b508091505092915050565b600061010083016000830151612f0e6000860182612fc1565b506020830151612f216020860182612b9c565b5060408301518482036040860152612f398282612cf2565b91505060608301518482036060860152612f538282612cf2565b91505060808301518482036080860152612f6d8282612cf2565b91505060a083015184820360a0860152612f878282612cf2565b91505060c083015184820360c0860152612fa18282612cf2565b91505060e0830151612fb660e0860182612cd4565b508091505092915050565b612fca81613425565b82525050565b612fd981613425565b82525050565b6000602082019050612ff46000830184612bab565b92915050565b600060608201905061300f6000830186612bab565b81810360208301526130218185612d2b565b905081810360408301526130358184612d2b565b9050949350505050565b600060208201905081810360008301526130598184612bba565b905092915050565b6000602082019050818103600083015261307b8184612c76565b905092915050565b6000602082019050818103600083015261309c81612d64565b9050919050565b600060208201905081810360008301526130bd8184612d87565b905092915050565b600060208201905081810360008301526130df8184612df8565b905092915050565b600060208201905081810360008301526131018184612ef5565b905092915050565b600060208201905061311e6000830184612fd0565b92915050565b60006101008201905061313a600083018b612fd0565b613147602083018a612bab565b81810360408301526131598189612d2b565b9050818103606083015261316d8188612d2b565b905081810360808301526131818187612d2b565b905081810360a08301526131958186612d2b565b905081810360c08301526131a98185612d2b565b90506131b860e0830184612ce3565b9998505050505050505050565b6000610140820190506131db600083018d612fd0565b6131e8602083018c612bab565b81810360408301526131fa818b612d2b565b9050818103606083015261320e818a612d2b565b905081810360808301526132228189612d2b565b905081810360a08301526132368188612d2b565b905081810360c083015261324a8187612d2b565b905061325960e0830186612fd0565b81810361010083015261326c8185612d2b565b905061327c610120830184612ce3565b9b9a5050505050505050505050565b60006132956132a6565b90506132a182826134a3565b919050565b6000604051905090565b600067ffffffffffffffff8211156132cb576132ca613532565b5b6132d482613561565b9050602081019050919050565b6000819050602082019050919050565b6000819050602082019050919050565b600081519050919050565b600081519050919050565b600081519050919050565b6000602082019050919050565b6000602082019050919050565b600082825260208201905092915050565b600082825260208201905092915050565b600082825260208201905092915050565b600082825260208201905092915050565b600082825260208201905092915050565b600061339c82613425565b91506133a783613425565b9250827fffffffffffffffffffffffffffffffffffffffffffffffffffffffffffffffff038211156133dc576133db6134d4565b5b828201905092915050565b60006133f282613405565b9050919050565b60008115159050919050565b600073ffffffffffffffffffffffffffffffffffffffff82169050919050565b6000819050919050565b82818337600083830152505050565b60005b8381101561345c578082015181840152602081019050613441565b8381111561346b576000848401525b50505050565b6000600282049050600182168061348957607f821691505b6020821081141561349d5761349c613503565b5b50919050565b6134ac82613561565b810181811067ffffffffffffffff821117156134cb576134ca613532565b5b80604052505050565b7f4e487b7100000000000000000000000000000000000000000000000000000000600052601160045260246000fd5b7f4e487b7100000000000000000000000000000000000000000000000000000000600052602260045260246000fd5b7f4e487b7100000000000000000000000000000000000000000000000000000000600052604160045260246000fd5b6000601f19601f8301169050919050565b7f6e6f7420656e6f7567682076616c756500000000000000000000000000000000600082015250565b6135a4816133e7565b81146135af57600080fd5b50565b6135bb816133f9565b81146135c657600080fd5b50565b6135d281613425565b81146135dd57600080fd5b5056fea2646970667358221220ac35642b3a4a9741d3e210a936bad816f32acb36758334137e6379d18e05eb6564736f6c63430008040033",
  "linkReferences": {},
  "deployedLinkReferences": {}
}